S014000043616C63756C6174655F50692E737265636A
S11300000C94A1010C94CB010C94CB010C94CB0166
S11300100C94CB010C94CB010C94CB010C94CB012C
S11300200C94CB010C94CB010C94CB010C94CB011C
S11300300C94CB010C94CB010C94100C0C94CB01BC
S11300400C94CB010C94CB010C94CB010C94CB01FC
S11300500C94CB010C94CB010C94CB010C94CB01EC
S11300600C94CB010C94CB010C94CB010C94CB01DC
S11300700C94CB010C94CB010C94CB010C94CB01CC
S11300800C94CB010C94CB010C94CB010C94CB01BC
S11300900C94CB010C94CB010C94CB010C94CB01AC
S11300A00C94CB010C94CB010C94CB010C94CB019C
S11300B00C94CB010C94CB010C94CB010C94CB018C
S11300C00C94CB010C94CB010C94CB010C94CB017C
S11300D00C94CB010C94CB010C94CB010C94CB016C
S11300E00C94CB010C94CB010C94CB010C94CB015C
S11300F00C94CB010C94CB010C94CB010C94CB014C
S11301000C94CB010C94CB010C94CB010C94CB013B
S11301100C94CB010C94CB010C94CB010C94CB012B
S11301200C94CB010C94CB010C94CB010C94CB011B
S11301300C94CB010C9434230C94CB010C94CB0180
S11301400C94CB010C94CB010C94CB010C94CB01FB
S11301500C94CB010C94CB010C94CB010C94CB01EB
S11301600C94CB010C94CB010C94CB010C94CB01DB
S11301700C94CB010C94CB010C94CB010C94CB01CB
S11301800C94CB010C94CB010C94CB010C94CB01BB
S11301900C94CB010C94CB010C94CB010C94CB01AB
S11301A00C94CB010C94CB010C94CB010C94CB019B
S11301B00C946F230C94CB010C94CB010C94CB01C5
S11301C00C94CB010C94CB010C94CB010C94CB017B
S11301D00C94CB010C94CB010C94CB010C94CB016B
S11301E00C94CB010C94CB010C94CB010C94CB015B
S11301F00C94CB010C94CB010C94CB01C61DC61DF1
S1130200C61D4D1E191E471EC61DC61D4D1E191E98
S11302100C944E220C94471E0C9401190C947920D2
S11302200C945C200C944D1E0C9402260C94A81B78
S11302300C94EE060C9491210C94191E0C94C61D7A
S11302406E616E00696E660000407A10F35A00A079
S1130250724E18090010A5D4E80000E8764817008B
S113026000E40B54020000CA9A3B000000E1F505CB
S1130270000080969800000040420F000000A08615
S113028001000000102700000000E8030000000047
S11302906400000000000A000000000001000000EB
S11302A000002C76D888DC674F0823DFC1DFAE5905
S11302B0E1B1B796E5E3E453C63AE651997696E898
S11302C0E6C28426EB898C9B62ED407C6FFCEFBC1C
S11302D09C9F40F2BAA56FA5F490055A2AF75C9347
S11302E06B6CF9676DC11BFCE0E40D47FEF520E67D
S11302F0B500D0ED902E0300943577050080841E60
S1130300080000204E0A000000C80C333333330FBA
S1130310986E12831141EF8D2114893BE65516CF57
S1130320FEE6DB18D1844B381BF77C1D901DA4BB63
S1130330E424203284725E228100C9F124ECA1E518
S11303403D2711241FBECFEFCDBFDFE3DEBF00E0AA
S11303500CBFE9EFFCE28AEA90E48193E030F9070C
S1130360E0F3000010E2A0E0B0E2EEECFCE600E016
S11303700BBF02C007900D92A036B107D9F72CE24B
S1130380A0E6B0E201C01D92A93FB207E1F70E94C6
S1130390F81F0C9465360C940000CF93DF93CDB70F
S11303A0DEB780EA96E0FC018085882F90E08071BA
S11303B0992795958795959587959595879595957D
S11303C08795892B89F480916020909161208036F3
S11303D09A4E20F58091602090916120019680933F
S11303E06020909361201AC08091602090916120D8
S11303F00B9768F08091602090916120C39718F06A
S11304001092DE2C07C081E08093DE2C03C082E0D2
S11304108093DE2C109260201092612080EA96E096
S1130420FC018085882F90E08072992795958795A7
S113043095958795959587959595879595958795A0
S1130440892B89F4809162209091632080369A4EA2
S113045020F5809162209091632001968093622020
S1130460909363201AC080916220909163200B972F
S113047068F08091622090916320C39718F01092E5
S1130480DF2C07C081E08093DF2C03C082E08093DF
S1130490DF2C109262201092632080EA96E0FC0127
S11304A08085882F90E080749927082E892F000C6E
S11304B0881F990B000C881F991F892B89F4809140
S11304C064209091652080369A4E20F580916420B6
S11304D090916520019680936420909365201AC0C2
S11304E080916420909165200B9768F0809164203E
S11304F090916520C39718F01092E02C07C081E01A
S11305008093E02C03C082E08093E02C109264205E
S11305101092652080EA96E0FC01808588238CF0A7
S1130520809166209091672080369A4E20F58091C4
S113053066209091672001968093662090936720AF
S11305401AC080916620909167200B9768F0809183
S1130550662090916720C39718F01092E12C07C091
S113056081E08093E12C03C082E08093E12C10921F
S11305706620109267200000DF91CF910895CF93F9
S1130580DF931F92CDB7DEB789838981882F90E0EE
S11305908130910579F0823091051CF4892B39F072
S11305A012C08230910549F0039751F00CC080913C
S11305B0DE2C0AC08091DF2C07C08091E02C04C09F
S11305C08091E12C01C082E00F90DF91CF910895DA
S11305D00F93CF93DF9300D000D0CDB7DEB78C83D9
S11305E09D836E838FE390E0FC0180818B83F8947C
S11305F08C819D8189839A838BE390E0FC01108236
S113060089819A812E81FC0108ED04BF20838FE348
S113061090E02B81FC01208300002696CDBFDEBF35
S1130620DF91CF910F910895CF93DF9300D0CDB791
S1130630DEB789836A834B8380E590E02A81222395
S113064011F020E201C020E03981322B2B81232BD1
S1130650FC01228300002396CDBFDEBFDF91CF9142
S11306600895CF93DF931F921F92CDB7DEB789838E
S11306706A838A818F718A8380E590E039812A8137
S1130680232BFC01258300000F900F90DF91CF9165
S11306900895CF93DF931F921F92CDB7DEB78A835D
S11306A080E590E020E530E0F9012081322F2A81B5
S11306B020952323FC01208380E590E0FC019081B8
S11306C08A818923898389810F900F90DF91CF914B
S11306D00895CF93DF9300D0CDB7DEB78A836B83C1
S11306E09A818B81892B8983698181E490E00E94BE
S11306F0E80200002396CDBFDEBFDF91CF910895BD
S1130700CF93DF931F921F92CDB7DEB78A8380E425
S113071090E0FC018081982F987F8A81892B8983BE
S1130720698180E490E00E94E80280E490E0FC01AA
S113073090818A818923898389810F900F90DF9129
S1130740CF910895CF93DF9300D0CDB7DEB78983DF
S11307509A836B8389819A81FC018081982F907F91
S11307608B81892B282F89819A81FC0120830000A9
S11307702396CDBFDEBFDF91CF910895CF93DF9352
S113078000D0CDB7DEB789839A836B8389819A8140
S1130790FC018181982F987F8B81892B282F898157
S11307A09A81FC01218300002396CDBFDEBFDF9137
S11307B0CF910895CF93DF9300D0CDB7DEB789836F
S11307C09A836B8389819A81FC018681982F9C7F0F
S11307D08B81892B282F89819A81FC012683000033
S11307E02396CDBFDEBFDF91CF910895CF93DF93E2
S11307F000D01F92CDB7DEB789839A836B837C8345
S11308008BE20E940A0400002496CDBFDEBFDF9174
S1130810CF910895CF93DF931F921F92CDB7DEB788
S11308208A838A818B3219F481E089830EC08A819C
S11308308C3219F482E0898308C08A818F3219F4DA
S113084083E0898302C084E089830E942D04000030
S11308500F900F90DF91CF910895CF93DF93CDB791
S1130860DEB7000084E390E028EDFC01208388E7F4
S113087090E021E0FC0121830000DF91CF910895F5
S1130880CF93DF931F921F92CDB7DEB780E190E044
S11308900E947D0789839A8389819A81892B61F0DB
S11308A089819A81FC0110821182128213828981CA
S11308B09A8104960E94CF0789819A810F900F90A4
S11308C0DF91CF910895CF92DF92EF92FF920F9331
S11308D01F93CF93DF93CDB7DEB76D97CDBFDEBF48
S11308E08A8B9B8B4C8B5D8B6E8B7F8B288F098FB8
S11308F0CA8EDB8EEC8EFD8E8A899B8989879A87C6
S11309001D821E821F8218861B860E941A148985E6
S11309109A85FC0180819181A281B3818C879D8716
S1130920AE87BF872C893D894E895F898C859D85DB
S1130930AE85BF85098DBC01CD010E940C07888B53
S11309408889882359F18C859D85AE85BF858983E7
S11309509A83AB83BC831A8E1B8E1C8E1D8E888D4E
S1130960882309F465C089859A85FC012081318139
S1130970428153818C899D89AE89BF8980959095E8
S1130980A095B09582239323A423B52329853A8582
S1130990F90180839183A283B3834AC08A8D9B8D9E
S11309A0AC8DBD8D892B8A2B8B2B59F48C859D8521
S11309B0AE85BF8589839A83AB83BC8381E08B87B3
S11309C037C0888D882349F08D819E81AF81B88599
S11309D0B1608D839E83AF83B887898D882349F066
S11309E08D819E81AF81B885B4608D839E83AF83F2
S11309F0B8872C893D894E895F898D819E81AF811D
S1130A00B885822B932BA42BB52B29853A85F90124
S1130A1034962A8D3B8D4C8D5D8D89019A01AC01F4
S1130A20BD01CF010E94ED1619821A821B821C821D
S1130A300E942714898B8A8D9B8DAC8DBD8D892B4B
S1130A408A2B8B2B09F465C08989882311F40E94B1
S1130A50660B0E94AB19DC01CB0189839A83AB83BB
S1130A60BC8389819A81AB81BC8188279927AA2775
S1130A70B270892B8A2B8B2B09F042C0F091A20013
S1130A80FF93F87FF093A20089859A85FC01808109
S1130A909181A281B38189839A83AB83BC832C899E
S1130AA03D894E895F8989819A81AB81BC81098D99
S1130AB0BC01CD010E940C078823E9F0888D8823AE
S1130AC0D1F089859A85FC0120813181428153814D
S1130AD08C899D89AE89BF8980959095A095B095A4
S1130AE082239323A423B52329853A85F90180839E
S1130AF09183A283B38381E08B87FF91F093A2005B
S1130B0089819A81AB81BC81BB2789839A83AB831A
S1130B10BC8389819A81AB81BC81BC01CD016D9676
S1130B20CDBFDEBFDF91CF911F910F91FF90EF906A
S1130B30DF90CF900895CF93DF93CDB7DEB72C9796
S1130B40CDBFDEBF8F83988749875A876B877C87A1
S1130B508F81988589839A83F091A200FF93F87F0F
S1130B60F093A20089819A81FC0180819181A28104
S1130B70B3818B839C83AD83BE8389819A81FC017D
S1130B80208131814281538189859A85AB85BC85D9
S1130B9080959095A095B09582239323A423B523A3
S1130BA029813A81F90180839183A283B383FF91E0
S1130BB0F093A2008B819C81AD81BE81BC01CD01EB
S1130BC02C96CDBFDEBFDF91CF910895CF93DF93F5
S1130BD0CDB7DEB76D97CDBFDEBF888F998F4A8FB3
S1130BE05B8F6C8F7D8F1B821C821D821E82888D81
S1130BF0998D888799871F828885998504968A8725
S1130C009B878A859B8503968C879D870E941A14EF
S1130C108A859B85FC018781908589839A83888551
S1130C209985FC0120813181428153818A8D9B8D7C
S1130C30AC8DBD8D822B932BA42BB52B28853985A8
S1130C40F90180839183A283B38395C089819A81BA
S1130C50FC01848195818E879F8789819A81FC011B
S1130C6080819181A281B381888B998BAA8BBB8B64
S1130C701F8288899989AA89BB8988279927AA27E5
S1130C808C8B9D8BAE8BBF8B88899989AA89BB89F4
S1130C90BB27888B998BAA8BBB8B8C899D89AE894A
S1130CA0BF8988279927AA27B470892B8A2B8B2B75
S1130CB0B1F488859985FC01208131814281538179
S1130CC088899989AA89BB8982239323A423B5237C
S1130CD0892B8A2B8B2BE9F081E08F831AC08885BE
S1130CE09985FC01208131814281538188899989C8
S1130CF0AA89BB89282339234A235B2388899989B4
S1130D00AA89BB89281739074A075B0711F481E0D0
S1130D108F838F81882359F18C899D89AE89BF89FE
S1130D2088279927AA27B170892B8A2B8B2B81F0CE
S1130D302B813C814D815E8188899989AA89BB89EF
S1130D40822B932BA42BB52B8B839C83AD83BE83E7
S1130D5088859985FC0180819181A281B381B260EB
S1130D6029813A81AC01BD01C9010E94C8178E8551
S1130D709F8589839A8329813A818C859D8528174B
S1130D80390709F063CF88859985FC012081318179
S1130D90428153818B819C81AD81BE8180959095E8
S1130DA0A095B09582239323A423B5232885398560
S1130DB0F90180839183A283B3830E9427148885D9
S1130DC09985FC0180819181A281B381BC01CD010F
S1130DD06D96CDBFDEBFDF91CF910895CF93DF93A2
S1130DE000D000D0CDB7DEB789839A834B835C8370
S1130DF06D837E838B819C81AD81BE8129813A8103
S1130E00AC01BD01C9010E94E60500002696CDBFD4
S1130E10DEBFDF91CF9108950F93CF93DF93CDB7CA
S1130E20DEB72A97CDBFDEBF6A837B838C839D8325
S1130E302E833F83488759870A8719828A858823A6
S1130E4099F42A813B814C815D818E819F81A885A3
S1130E50B98582239323A423B523892B8A2B8B2B37
S1130E60D1F081E0898317C02A813B814C815D8167
S1130E708E819F81A885B985282339234A235B2342
S1130E808E819F81A885B985281739074A075B0792
S1130E9011F481E0898389812A96CDBFDEBFDF9179
S1130EA0CF910F9108950F931F93CF93DF93CDB7F5
S1130EB0DEB72997CDBFDEBF8A839B834C835D83D6
S1130EC06E837F8328873987288539858C819D8126
S1130ED0AE81BF816A817B8189019C01AD018EEE67
S1130EE096E00E94571F898389812996CDBFDEBF72
S1130EF0DF91CF911F910F910895CF93DF9300D08D
S1130F001F92CDB7DEB78B839C8319821A820E940D
S1130F101A142091202C3091212C8B819C81820FDA
S1130F20931F883B9B4018F52091202C3091212C55
S1130F308B819C81280F391F8091202C9091212C2A
S1130F4082179307A0F48091202C9091212C88592A
S1130F509F4D89839A832091202C3091212C8B8161
S1130F609C81820F931F8093202C9093212C0E94AC
S1130F70271489819A812496CDBFDEBFDF91CF915A
S1130F800895CF93DF931F921F92CDB7DEB7898365
S1130F909A8300000F900F90DF91CF910895CF9323
S1130FA0DF931F921F92CDB7DEB789839A8389811D
S1130FB09A819C012D5F3F4F89819A81FC01218395
S1130FC0328329813A818FEF9FEFDC01F90183831A
S1130FD09483A583B68389819A819C012D5F3F4FB9
S1130FE089819A81FC012783308789819A819C01B8
S1130FF02D5F3F4F89819A81FC0121873287898146
S11310009A81FC01108200000F900F90DF91CF9124
S11310100895CF93DF931F921F92CDB7DEB78983D4
S11310209A8389819A81FC011286138600000F90AD
S11310300F90DF91CF910895CF93DF9300D000D02C
S1131040CDB7DEB78B839C836D837E838B819C813C
S1131050FC018181928189839A838D819E8129817A
S11310603A81FC012483358389819A81FC0126819C
S113107037818D819E81FC012683378389819A8102
S1131080FC01868197812D813E81FC012483358377
S113109089819A812D813E81FC01268337838D814C
S11310A09E812B813C81FC01228733878B819C812B
S11310B0FC01808121E0280F8B819C81FC0120832D
S11310C000002696CDBFDEBFDF91CF910895CF9368
S11310D0DF93CDB7DEB72A97CDBFDEBF8F83988766
S11310E069877A8789859A85FC0180819181A281AB
S11310F0B3818B839C83AD83BE838B819C81AD81C3
S1131100BE818F3F9F4FAF4FBF4F41F48F81988572
S1131110FC018185928589839A8320C08F8198857B
S1131120039689839A8307C089819A81FC0184810B
S1131130958189839A8389819A81FC01848195812F
S1131140FC0120813181428153818B819C81AD815D
S1131150BE8182179307A407B50730F789819A8166
S1131160FC012481358189859A85FC01248335839A
S113117089859A85FC018481958129853A85FC01BC
S11311802683378389859A8529813A81FC012683C0
S1131190378389819A8129853A85FC0124833583A3
S11311A089859A852F813885FC01228733878F8131
S11311B09885FC01808121E0280F8F819885FC01AE
S11311C0208300002A96CDBFDEBFDF91CF91089522
S11311D0CF93DF9300D01F92CDB7DEB78B839C8370
S11311E08B819C81FC018285938589839A838B8181
S11311F09C81FC01848195812B813C81F9012681AC
S11312003781FC01268337838B819C81FC01868195
S113121097812B813C81F90124813581FC01248350
S1131220358389819A81FC01218132818B819C8162
S11312302817390751F48B819C81FC012681378161
S113124089819A81FC01218332838B819C81FC01F9
S11312501286138689819A81FC0180812FEF280FE1
S113126089819A81FC01208389819A81FC01808192
S11312702496CDBFDEBFDF91CF9108951F93CF9306
S1131280DF93CDB7DEB780EA90E0FC01128180EAFB
S113129090E020EA30E0F9012281287FFC012283DA
S11312A0812FDF91CF911F910895CF93DF93CDB715
S11312B0DEB72A97CDBFDEBF8D839E836F83788789
S11312C049875A878D819E8121E1FC0120838D818C
S11312D09E8101978D839E838D819E8122E2FC01F4
S11312E020838D819E8101978D839E838D819E8134
S11312F023E3FC0120838D819E8101978D839E834E
S11313008F819885CC01A0E0B0E089839A83AB8378
S1131310BC8329818D819E81FC0120838D819E81E6
S113132001978D839E8389819A81AB81BC81892FAA
S11313309A2FAB2FBB2789839A83AB83BC832981E4
S11313408D819E81FC0120838D819E8101978D83F7
S11313509E8389819A81AB81BC81892F9A2FAB2F7F
S1131360BB2789839A83AB83BC8329818D819E812A
S1131370FC0120838D819E8101978D839E838D81C5
S11313809E8121E3FC0120838D819E8101978D83C1
S11313909E838D819E8120E8FC0120838D819E8126
S11313A001978D839E838D819E8127E8FC01208394
S11313B08D819E8101978D839E838D819E81FC0109
S11313C010828D819E8101978D839E838D819E8164
S11313D0FC0110828D819E8101978D839E838D8176
S11313E09E8122E0FC0120838D819E8101978D8363
S11313F09E838D819E8123E0FC0120838D819E81CB
S113140001978D839E838D819E8124E0FC0120833E
S11314108D819E8101978D839E838D819E8125E0A0
S1131420FC0120838D819E8101978D839E838D8114
S11314309E8126E0FC0120838D819E8101978D830E
S11314409E838D819E8127E0FC0120838D819E8176
S113145001978D839E838D819E8128E0FC012083EA
S11314608D819E8101978D839E838D819E8129E04C
S1131470FC0120838D819E8101978D839E838D81C4
S11314809E8120E1FC0120838D819E8101978D83C3
S11314909E838D819E8121E1FC0120838D819E812B
S11314A001978D839E838D819E8122E1FC0120839F
S11314B08D819E8101978D839E838D819E8123E101
S11314C0FC0120838D819E8101978D839E838D8174
S11314D09E8124E1FC0120838D819E8101978D836F
S11314E09E838D819E8125E1FC0120838D819E81D7
S11314F001978D839E838D819E8126E1FC0120834B
S11315008D819E8101978D839E838D819E8127E1AC
S1131510FC0120838D819E8101978D839E838D8123
S11315209E8128E1FC0120838D819E8101978D831A
S11315309E838D819E8129E1FC0120838D819E8182
S113154001978D839E838D819E8120E2FC012083FF
S11315508D819E8101978D839E838D819E8121E261
S1131560FC0120838D819E8101978D839E838D81D3
S11315709E8122E2FC0120838D819E8101978D83CF
S11315809E838D819E8123E2FC0120838D819E8137
S113159001978D839E8389859A85CC01A0E0B0E074
S11315A089839A83AB83BC8329818D819E81FC01CD
S11315B020838D819E8101978D839E8389819A8169
S11315C0AB81BC81892F9A2FAB2FBB2789839A8348
S11315D0AB83BC8329818D819E81FC0120838D8115
S11315E09E8101978D839E838D819E8126E2FC01DD
S11315F020838D819E8101978D839E838D819E8121
S113160027E2FC0120838D819E8101978D839E8337
S11316108D819E8128E2FC0120838D819E8101972A
S11316208D839E838D819E8129E2FC0120838D819F
S11316309E8101978D839E838D819E8120E3FC0191
S113164020838D819E8101978D839E838D819E81D0
S11316502A96CDBFDEBFDF91CF910895CF93DF935C
S1131660CDB7DEB70E94750CA091222CB091232C2B
S11316700D900DBE0D900EBEEF91DF91CF91BF91F5
S1131680AF919F918F917F916F915F914F913F9116
S11316902F911F910F91FF90EF90DF90CF90BF900B
S11316A0AF909F908F907F906F905F904F903F90FE
S11316B02F901F900F90FF91F093A200FF91FFBF16
S11316C0FF91089581E0DF91CF910895FF93FFB7D3
S11316D0FF93F091A200FF93F87FF093A2000F9282
S11316E01F9211242F923F924F925F926F927F929A
S11316F08F929F92AF92BF92CF92DF92EF92FF921E
S11317000F931F932F933F934F935F936F937F9305
S11317108F939F93AF93BF93CF93DF93EF93A09156
S1131720222CB091232C0DB60D920EB60D920E9470
S1131730F515A091222CB091232C0D900DBE0D9087
S11317400EBEEF91DF91CF91BF91AF919F918F9199
S11317507F916F915F914F913F912F911F910F91C5
S1131760FF90EF90DF90CF90BF90AF909F908F90BD
S11317707F906F905F904F903F902F901F900F90AD
S1131780FF91F093A200FF91FFBFFF910895000025
S11317901F93CF93DF931F92CDB7DEB789838091D8
S11317A0E22C982F8981892B8093E22C80EA90E0A7
S11317B0FC018081813061F080EA90E0FC0180814D
S11317C0823031F080EA90E0FC018081843079F449
S11317D08091E22C882359F00E943E09182F109220
S11317E0E22C0E94F51580EA90E0FC0112830000CF
S11317F00F90DF91CF911F9108951F93CF93DF93A3
S1131800CDB7DEB70E943E09182F0E94E51480EA86
S113181090E0FC0112830000DF91CF911F910895A5
S1131820FF93FFB7FF93F091A200FF93F87FF0932B
S1131830A2000F921F9211242F923F924F925F9217
S11318406F927F928F929F92AF92BF92CF92DF92CC
S1131850EF92FF920F931F932F933F934F935F93B6
S11318606F937F938F939F93AF93BF93CF93DF93A4
S1131870EF93A091222CB091232C0DB60D920EB6AD
S11318800D920E94FD0B81E00E94C80BA091222CB6
S1131890B091232C0D900DBE0D900EBEEF91DF91F3
S11318A0CF91BF91AF919F918F917F916F915F91F4
S11318B04F913F912F911F910F91FF90EF90DF90E7
S11318C0CF90BF90AF909F908F907F906F905F90DC
S11318D04F903F902F901F900F90FF91F093A20094
S11318E0FF91FFBFFF9118950000CF93DF9300D0C5
S11318F01F92CDB7DEB780E09DE7A0E0B0E089831A
S11319009A83AB83BC8389819A81AB81BC816894BF
S113191015F8B695A795979587951694D1F7898369
S11319209A83AB83BC8389819A81AB81BC81019703
S1131930A109B10989839A83AB83BC8380E098E0D1
S113194029813A81FC0126A337A365E080E098E071
S11319500E94A20361E080E098E00E94DA030000A4
S11319602496CDBFDEBFDF91CF910895CF93DF934F
S1131970CDB7DEB72597CDBFDEBF8B839C836D8348
S11319808B819C8189839A83F091A200FF93F87FD5
S1131990F093A20089819A81FC018081918129813F
S11319A03A81F901278D422F50E029813A81F901CA
S11319B020A1222F30E0429FB001439F700D529F1F
S11319C0700D11249B01280F391F89819A81FC0114
S11319D02283338389819A81FC01168E89819A81BD
S11319E0FC012081318189819A81FC012483358322
S11319F089819A81FC018081918129813A81F9014F
S1131A00278D222F30E0A9014150510929813A81C3
S1131A10F90120A1222F30E0429FB001439F700DB5
S1131A20529F700D11249B01280F391F89819A81BF
S1131A30FC012683378389819A812FEFFC0121A33E
S1131A4089819A812FEFFC0122A38D81882381F45F
S1131A5089819A81FC0180858823A1F089819A81FA
S1131A6008960E946017882369F00E94660B0AC0DA
S1131A7089819A8108960E94CF0789819A81439629
S1131A800E94CF07FF91F093A20081E02596CDBF7D
S1131A90DEBFDF91CF9108950F931F93CF93DF9310
S1131AA0CDB7DEB72997CDBFDEBF8F83688749875F
S1131AB08885882319F419821A820FC08F81482FD0
S1131AC050E08885282F30E0429FC001439F900D4D
S1131AD0529F900D112489839A8389819A818596D6
S1131AE00E947D078B839C838B819C81892B81F051
S1131AF08B819C8185968D839E832B813C818D81F6
S1131B009E8189012985AC0168858F810E94920D8F
S1131B108B819C812996CDBFDEBFDF91CF911F9130
S1131B200F9108950F931F93CF93DF93CDB7DEB733
S1131B302797CDBFDEBF89836A834B835C832D8364
S1131B400E831F838A81882341F48E819F812E8195
S1131B503F81FC012083318307C08E819F812B81CB
S1131B603C81FC01208331838E819F812981FC018A
S1131B70278F8E819F812A81FC0120A38E819F81E2
S1131B8061E00E94B60C8E819F812D81FC0124A30B
S1131B9000002796CDBFDEBFDF91CF911F910F913B
S1131BA008950F93CF93DF93CDB7DEB76297CDBF80
S1131BB0DEBF8A879B876C877D872E873F87488B0C
S1131BC0598B0A8B19828A859B858A839B83F09122
S1131BD0A200FF93F87FF093A2008A819B81FC010D
S1131BE0268D8A819B81FC01878D281718F08A89AC
S1131BF0823019F52C853D858A819B814A89B901FA
S1131C000E94CF0F8C838A819B81FC018389882366
S1131C1051F08A819B8143960E946017882341F08A
S1131C200E94660B05C08C81882311F00E94660B0C
S1131C30FF91F093A20081E06FC08E859F85A889F3
S1131C40B989892B8A2B8B2B29F4FF91F093A2005D
S1131C5080E062C08981882331F4CE0105960E9418
S1131C602B1881E08983FF91F093A2000E941A143B
S1131C70F091A200FF93F87FF093A2008A819B81E8
S1131C80FC0181A18F3F21F48A819B81FC0111A277
S1131C908A819B81FC0182A18F3F21F48A819B81EF
S1131CA0FC0112A2FF91F093A2009E01225F3F4F1C
S1131CB0CE010596B9010E944E18882331F58A8118
S1131CC09B810E945A118823C9F08E859F85A8891B
S1131CD0B9892A813B81285F3F4FAC01BD01C9010D
S1131CE00E94C5168A819B810E94D4100E942714E9
S1131CF0882309F06CCF0E94660B69CF8A819B818F
S1131D000E94D4100E94271462CF8A819B810E9472
S1131D10D4100E94271480E06296CDBFDEBFDF910D
S1131D20CF910F910895CF93DF93CDB7DEB72C9762
S1131D30CDBFDEBF8E839F83688779874A875B87A1
S1131D402C878E819F818A839B830E943E098C838A
S1131D508A819B81FC01268D8A819B81FC01878D70
S1131D60281718F08C85823089F58A819B81FC01C3
S1131D7082A18D83288539858A819B814C85B9010F
S1131D800E94CF0F8D818F3FB9F48A819B81FC0122
S1131D9083898823C1F08A819B8143960E946017BE
S1131DA0882389F08A859B85892B69F08A859B85A0
S1131DB021E0FC01208307C08D818F5F282F8A8159
S1131DC09B81FC0122A381E0898301C0198280EAFE
S1131DD090E02C81FC01228389812C96CDBFDEBF4B
S1131DE0DF91CF910895CF93DF93CDB7DEB761979D
S1131DF0CDBFDEBF8A879B876C877D872E873F8711
S1131E00488B598B19828A859B858A839B83F091A1
S1131E10A200FF93F87FF093A2008A819B81FC01CA
S1131E20868D8C838C81882311F12C853D858A8154
S1131E309B81B9010E9484108C812FEF280F8A8125
S1131E409B81FC01268F8A819B81FC0180858823EC
S1131E5049F08A819B8108960E946017882311F0BB
S1131E600E94660BFF91F093A20081E076C08E85FC
S1131E709F85A889B989892B8A2B8B2B29F4FF91FB
S1131E80F093A20080E069C08981882331F4CE01F7
S1131E9005960E942B1881E08983FF91F093A2009C
S1131EA00E941A14F091A200FF93F87FF093A2000D
S1131EB08A819B81FC0181A18F3F21F48A819B81CE
S1131EC0FC0111A28A819B81FC0182A18F3F21F434
S1131ED08A819B81FC0112A2FF91F093A2009E01D2
S1131EE0225F3F4FCE010596B9010E944E18882308
S1131EF031F58A819B810E9439118823C9F08E852E
S1131F009F85A889B9892A813B812D5E3F4FAC0109
S1131F10BD01C9010E94C5168A819B810E94D4100B
S1131F200E942714882309F072CF0E94660B6FCF9A
S1131F308A819B810E94D4100E94271468CF8A81D1
S1131F409B810E94D4100E9427148A819B810E9445
S1131F503911882309F45BCF80E06196CDBFDEBFE1
S1131F60DF91CF910895CF93DF9300D0CDB7DEB743
S1131F708A839B83F091A200FF93F87FF093A200E1
S1131F808A819B81FC01868D8983FF91F093A20055
S1131F9089812396CDBFDEBFDF91CF910895CF9382
S1131FA0DF93CDB7DEB72797CDBFDEBF8B839C838E
S1131FB06D837E834F831A828B819C81FC01868D85
S1131FC089838B819C81FC0180A1882309F48EC0C4
S1131FD08F818823D9F58B819C81FC0180A1482FB6
S1131FE050E08B819C81FC01848195812D813E810F
S1131FF0B9010E94F6338B819C81FC0124813581D7
S11320008B819C81FC0180A1882F90E0280F391FCF
S11320108B819C81FC01248335838B819C81FC0111
S1132020248135818B819C81FC01828193812817D5
S1132030390708F45BC08B819C81FC0120813181CC
S11320408B819C81FC012483358350C08B819C81CE
S1132050FC0180A1482F50E08B819C81FC0186818A
S113206097812D813E81B9010E94F6338B819C8139
S1132070FC01268137818B819C81FC0180A1882F02
S113208090E0919581959109280F391F8B819C814E
S1132090FC01268337838B819C81FC012681378157
S11320A08B819C81FC018081918128173907A8F4D8
S11320B08B819C81FC01228133818B819C81FC0179
S11320C080A1882F90E0919581959109280F391F5F
S11320D08B819C81FC01268337838F81823031F48C
S11320E08981882319F0898181508983898121E03C
S11320F0280F8B819C81FC01268F8A812796CDBF76
S1132100DEBFDF91CF910895CF93DF9300D01F926C
S1132110CDB7DEB789839A836B837C8389819A8167
S1132120FC0180A18823C9F189819A81FC0126815F
S1132130378189819A81FC0180A1882F90E0280F42
S1132140391F89819A81FC012683378389819A8189
S1132150FC012681378189819A81FC0182819381E6
S11321602817390750F089819A81FC012081318137
S113217089819A81FC012683378389819A81FC01B4
S113218080A1482F50E089819A81FC012681378102
S11321908B819C81B9010E94F63300002496CDBF47
S11321A0DEBFDF91CF910895CF93DF9300D01F92CC
S11321B0CDB7DEB78B839C83F091A200FF93F87FA9
S11321C0F093A2008B819C81FC0182A1898312C0BF
S11321D08B819C81FC018389882381F08B819C8184
S11321E043960E946017882311F00E94F618898193
S11321F081508983898118165CF301C000008B81AA
S11322009C812FEFFC0122A3FF91F093A200F09197
S1132210A200FF93F87FF093A2008B819C81FC01C4
S113222081A18A8312C08B819C81FC0180858823D3
S113223081F08B819C8108960E946017882311F09D
S11322400E94F6188A8181508A838A8118165CF369
S113225001C000008B819C812FEFFC0121A3FF9121
S1132260F093A20000002496CDBFDEBFDF91CF9192
S11322700895CF93DF9300D0CDB7DEB78A839B83D5
S1132280F091A200FF93F87FF093A2008A819B81D2
S1132290FC01868D882319F481E0898301C01982A9
S11322A0FF91F093A20089812396CDBFDEBFDF9119
S11322B0CF910895CF93DF9300D0CDB7DEB78A8353
S11322C09B83F091A200FF93F87FF093A2008A8190
S11322D09B81FC01268D8A819B81FC01878D2817B7
S11322E019F481E0898301C01982FF91F093A2005F
S11322F089812396CDBFDEBFDF91CF910895CF931F
S1132300DF93CDB7DEB72997CDBFDEBF8B839C8328
S11323104D835E836F83788729878B819C81898332
S11323209A83F091A200FF93F87FF093A200898131
S11323309A81FC0181A18F3F21F489819A81FC015A
S113234011A289819A81FC0182A18F3F21F48981A4
S11323509A81FC0112A2FF91F093A20089819A81D3
S1132360FC01868D882371F489819A81FC0173961E
S11323708D819E81AF81B8852985AC01BD01CF01D6
S11323800E942C1789819A810E94D41000002996FA
S1132390CDBFDEBFDF91CF9108958F929F92AF9210
S11323A0BF92CF92DF92EF92FF920F931F93CF933E
S11323B0DF93CDB7DEB76097CDBFDEBF8E839F833B
S11323C0688779874A875B872C873D870E87EF86E6
S11323D0F88A8A859B850E947D078C839D838C81E6
S11323E09D81892BB9F08CE290E00E947D0789835E
S11323F09A8389819A81892B41F089819A812C81E0
S11324003D81FC01238F348F07C08C819D810E9404
S1132410C10702C019821A8289819A81892B09F124
S11324208A859B85CC01A0E0B0E009811A814F85A3
S113243058892C853D8568857985EE81FF81812CBD
S1132440912C58016A01EE8489019C01AD01CF01F0
S11324500E94441289819A810E941A1381E08B831D
S113246002C08FEF8B838B816096CDBFDEBFDF917F
S1132470CF911F910F91FF90EF90DF90CF90BF907D
S1132480AF909F908F9008958F929F92AF92BF923A
S1132490CF92DF92EF92FF920F931F93CF93DF932C
S11324A0CDB7DEB76497CDBFDEBF8C839D836E83CB
S11324B07F83288739874A875B870C871D87EE8649
S11324C0CF86D88AA98ABA8A8B8A9C8A2885398534
S11324D089899A89FC01838D948DA90165EA70E04C
S11324E00E94FF3389899A89FC01238D348D888564
S11324F099850197820F931F8A839B83198221C038
S11325008981882F90E02981222F30E04E815F81DC
S1132510240F351FF901408129893A89820F931FBD
S11325204D96FC0140838981882F90E02E813F8164
S1132530820F931FFC018081882339F089818F5F8A
S1132540898389818830E0F201C0000089899A89F1
S1132550FC0114A28E85843010F083E08E87898973
S11325609A892E85FC01228F89899A8902960E9474
S1132570090889899A890E960E94090889899A8985
S113258029893A89FC01228733878E85882F90E038
S1132590A0E0B0E024E030E040E050E079018A01BE
S11325A0E81AF90A0A0B1B0BD801C70129893A89D1
S11325B0F90186879787A08BB18B89899A892989A4
S11325C03A89FC01268B378B89899A89FC0117A2E9
S11325D010A611A612A689899A89FC0113A64C8516
S11325E05D852C813D818A819B81B9010E945509B9
S11325F09C0189899A89FC01208331838F8598897C
S1132600892B39F08F85988929893A89FC0120839F
S1132610318300006496CDBFDEBFDF91CF911F915F
S11326200F91FF90EF90DF90CF90BF90AF909F906D
S11326308F900895CF93DF931F921F92CDB7DEB78B
S113264089839A83F091A200FF93F87FF093A2000C
S11326508091802C8F5F8093802C8091222C90918C
S1132660232C892B69F489819A818093222C90935D
S1132670232C8091802C8130C9F40E94141916C037
S11326808091862C882391F48091222C9091232C84
S1132690FC01228D89819A81FC01828D821730F0A0
S11326A089819A818093222C9093232C80918A2C67
S11326B08F5F80938A2C20918A2C89819A81FC01D6
S11326C025A389819A81FC01928D8091852C89179B
S11326D030F489819A81FC01828D8093852C8981D3
S11326E09A81AC014E5F5F4F89819A81FC01828D92
S11326F0282F30E06BE0629FC001639F900D11248E
S11327008C5D934DBA010E941C08FF91F093A200C6
S11327108091862C882371F08091222C9091232C17
S1132720FC01228D89819A81FC01828D281710F485
S11327300E94660B00000F900F90DF91CF910895D7
S1132740CF93DF93CDB7DEB72597CDBFDEBF6A83C6
S11327507B838C839D8319828A819B81AC81BD811B
S1132760892B8A2B8B2B71F00E941A148A819B81EE
S1132770AC81BD8140E0BC01CD010E94F1190E94F1
S1132780271489838981882311F40E94660B000031
S11327902596CDBFDEBFDF91CF910895EF92FF92D2
S11327A00F93CF93DF931F92CDB7DEB70F2EFFE8C1
S11327B0EF2EFCE2FF2EF02D00E020E030E048ECAC
S11327C050E068E070E281E099E10E94CD118983D4
S11327D08981813019F40E94921A89838981813018
S11327E009F580EA90E020EA30E0F9012281287FAF
S11327F0FC0122838FEF9FEFDC0180938B2C90935D
S11328008C2CA0938D2CB0938E2C81E08093862CFD
S11328101092812C1092822C1092832C1092842C72
S11328200E942E0B00000F90DF91CF910F91FF902B
S1132830EF900895CF93DF93CDB7DEB78091912CBD
S11328408F5F8093912C0000DF91CF910895CF93F7
S1132850DF9300D01F92CDB7DEB719821A821B8294
S1132860F091A200FF93F87FF093A2008091912C45
S113287081508093912C8091912C882309F074C00D
S11328808091802C882309F46FC046C08091712CFC
S11328909091722CFC018085918589839A8389812A
S11328A09A810E960E94E80889819A8102960E9474
S11328B0E80889819A81FC01928D8091852C891781
S11328C030F489819A81FC01828D8093852C8981E1
S11328D09A81AC014E5F5F4F89819A81FC01828DA0
S11328E0282F30E06BE0629FC001639F900D11249C
S11328F08C5D934DBA010E941C0889819A81FC0168
S1132900228D8091222C9091232CFC01828D2817FA
S113291018F081E08093882C80916A2C882309F038
S1132920B5CF89819A81892B11F00E945719809122
S1132930872C8C838C81882379F00E94E51488236A
S113294019F081E08093882C8C8181508C838C8158
S1132950882399F71092872C8091882C882321F062
S113296081E08B830E94660BFF91F093A2008B8120
S11329702496CDBFDEBFDF91CF910895CF93DF932F
S113298000D01F92CDB7DEB7F091A200FF93F87F7D
S1132990F093A2008091812C9091822CA091832CA1
S11329A0B091842C89839A83AB83BC83FF91F09389
S11329B0A20089819A81AB81BC81BC01CD0124969E
S11329C0CDBFDEBFDF91CF910895CF93DF93CDB715
S11329D0DEB72D97CDBFDEBF19828091912C88235D
S11329E009F0F1C08091812C9091822CA091832CCC
S11329F0B091842C0196A11DB11D8A839B83AC8365
S1132A00BD838A819B81AC81BD818093812C90930D
S1132A10822CA093832CB093842C8A819B81AC81DB
S1132A20BD81892B8A2B8B2BD9F48091662C9091B4
S1132A30672C8E839F838091682C9091692C80935E
S1132A40662C9093672C8E819F818093682C909341
S1132A50692C8091892C8F5F8093892C0E9457194F
S1132A6080918B2C90918C2CA0918D2CB0918E2CDC
S1132A702A813B814C815D81281739074A075B070E
S1132A8008F48AC08091662C9091672CFC018081A7
S1132A90882361F48FEF9FEFDC0180938B2C90935C
S1132AA08C2CA0938D2CB0938E2C76C08091662CA8
S1132AB09091672CFC0187819085FC01808591852C
S1132AC08887998788859985FC0182819381A4816F
S1132AD0B5818A879B87AC87BD872A813B814C81DE
S1132AE05D818A859B85AC85BD85281739074A0792
S1132AF05B0768F48A859B85AC85BD8580938B2CA8
S1132B0090938C2CA0938D2CB0938E2C45C08885EB
S1132B10998502960E94E80888859985FC01808D34
S1132B20918D892B29F0888599850E960E94E80855
S1132B3088859985FC01928D8091852C891730F4C4
S1132B4088859985FC01828D8093852C888599855B
S1132B50AC014E5F5F4F88859985FC01828D282FDB
S1132B6030E06BE0629FC001639F900D11248C5D87
S1132B70934DBA010E941C0888859985FC01228D19
S1132B808091222C9091232CFC01828D281708F42B
S1132B9079CF81E0898376CF8091222C9091232C68
S1132BA0FC01828D282F30E04BE0429FC001439FFF
S1132BB0900D11248C5D934DFC018081823040F096
S1132BC081E0898305C08091872C8F5F8093872C57
S1132BD08091882C882311F081E0898389812D9646
S1132BE0CDBFDEBFDF91CF910895CF93DF93CDB7F3
S1132BF0DEB72997CDBFDEBF8091912C882321F0C9
S1132C0081E08093882CBAC01092882C8091222C69
S1132C109091232CFC01838D948D8A839B8385EA78
S1132C2095EADC018C839D83AE83BF838A819B817B
S1132C30FC0120813181428153818C819D81AE814F
S1132C40BF81281739074A075B0799F58A819B8159
S1132C500496FC0120813181428153818C819D81C4
S1132C60AE81BF81281739074A075B0711F58A81AE
S1132C709B810896FC0120813181428153818C81A2
S1132C809D81AE81BF81281739074A075B0789F404
S1132C908A819B810C96FC01208131814281538180
S1132CA08C819D81AE81BF81281739074A075B0754
S1132CB071F08091222C9091232C9C01235E3F4F34
S1132CC08091222C9091232CB9010E94F6038091CB
S1132CD0852C898303C08981815089838981282F28
S1132CE030E04BE0429FC001439F900D11248C5D66
S1132CF0934DFC018081882371F38981282F30E072
S1132D004BE0429FC001439F900D11248C5D934D75
S1132D108887998788859985FC0181819281FC0146
S1132D202481358188859985FC01218332838885B6
S1132D309985FC012181328188859985039628171C
S1132D40390769F488859985FC0181819281FC01A8
S1132D502481358188859985FC0121833283888586
S1132D609985FC0181819281FC0180859185809304
S1132D70222C9093232C89818093852C0000299602
S1132D80CDBFDEBFDF91CF910895CF93DF9300D005
S1132D9000D0CDB7DEB789839A834B835C836D8380
S1132DA07E838091222C9091232C9C01225F3F4FA3
S1132DB089819A81B9010E9467088B819C81AD81C8
S1132DC0BE8141E0BC01CD010E94F11900002696AC
S1132DD0CDBFDEBFDF91CF9108950F931F93CF93A3
S1132DE0DF93CDB7DEB72A97CDBFDEBF89839A8341
S1132DF04B835C836D837E830F83188729873A878F
S1132E002091222C3091232C8B819C81AD81BE8119
S1132E10B068F90186879787A08BB18B8091222CAB
S1132E209091232C9C01225F3F4F89819A81B901A3
S1132E300E941C088F819885A985BA8541E0BC0150
S1132E40CD010E94F11900002A96CDBFDEBFDF91AB
S1132E50CF911F910F910895CF93DF93CDB7DEB734
S1132E602797CDBFDEBF89839A834B835C836D83B1
S1132E707E832F838091222C9091232C9C01225FAE
S1132E803F4F89819A81B9010E941C088F81882350
S1132E9039F08FEF9FEFDC018B839C83AD83BE837E
S1132EA08B819C81AD81BE814F81BC01CD010E948B
S1132EB0F11900002796CDBFDEBFDF91CF910895B1
S1132EC0CF93DF93CDB7DEB72597CDBFDEBF8C831D
S1132ED09D838C819D81FC0187819085FC01808587
S1132EE091858A839B838A819B810E960E94E80840
S1132EF08091912C882351F58A819B8102960E94AE
S1132F00E8088A819B81FC01928D8091852C891728
S1132F1030F48A819B81FC01828D8093852C8A8187
S1132F209B81AC014E5F5F4F8A819B81FC01828D46
S1132F30282F30E06BE0629FC001639F900D112445
S1132F408C5D934DBA010E941C0808C08A819B8144
S1132F500E96BC018AE69CE20E941C088A819B8131
S1132F60FC01228D8091222C9091232CFC01828DD6
S1132F70821730F481E0898381E08093882C01C03A
S1132F80198289812596CDBFDEBFDF91CF91089547
S1132F90CF93DF93CDB7DEB72897CDBFDEBF8B834A
S1132FA09C834D835E836F8378878D819E81AF81FF
S1132FB0B885B0682B813C81F90180839183A28319
S1132FC0B3838B819C81FC018085918589839A835D
S1132FD08B819C810E94E80889819A8102960E94D3
S1132FE0E80889819A81FC01928D8091852C89174A
S1132FF030F489819A81FC01828D8093852C8981AA
S11330009A81AC014E5F5F4F89819A81FC01828D68
S1133010282F30E06BE0629FC001639F900D112464
S11330208C5D934DBA010E941C0889819A81FC0130
S1133030228D8091222C9091232CFC01828D821769
S113304018F481E08093882C00002896CDBFDEBF61
S1133050DF91CF910895CF93DF931F921F92CDB745
S1133060DEB789839A832091892C89819A81FC0116
S113307020838091812C9091822CA091832CB091FB
S1133080842C29813A81F90181839283A383B483B7
S113309000000F900F90DF91CF910895EF92FF926F
S11330A00F931F93CF93DF93CDB7DEB72D97CDBF8B
S11330B0DEBF8A879B876C877D87F091A200FF9390
S11330C0F87FF093A2008091812C9091822CA091A2
S11330D0832CB091842C8A839B83AC83BD838A85A3
S11330E09B85FC0181819281A381B4812A813B81EA
S11330F04C815D8179018A01E81AF90A0A0B1B0BDC
S1133100D801C7018E839F83A887B9878C859D8545
S1133110FC0180819181A281B3818F3F9F4FAF4F8A
S1133120BF4F11F4198254C08A859B85FC0190819C
S11331308091892C981799F08A859B85FC012181BF
S11331403281438154818A819B81AC81BD81821704
S11331509307A407B50718F081E0898339C08C85EB
S11331609D85FC0120813181428153818E819F8123
S1133170A885B98582179307A407B50700F58C8540
S11331809D85FC0120813181428153818E819F8103
S1133190A885B98579018A01E81AF90A0A0B1B0B7B
S11331A0D801C7012C853D85F90180839183A283D1
S11331B0B3838A859B850E942B18198209C08C854C
S11331C09D85FC01108211821282138281E0898321
S11331D0FF91F093A20089812D96CDBFDEBFDF91D0
S11331E0CF911F910F91FF90EF900895CF93DF93AC
S11331F0CDB7DEB781E08093882C0000DF91CF91BA
S11332000895CF93DF931F921F92CDB7DEB78983C2
S11332109A830E944F198091242C823010F00E94CE
S1133220660B0E94F01FF5CFCF93DF931F92CDB7AB
S1133230DEB7198210C08981282F30E04BE0429F0D
S1133240C001439F900D11248C5D934D0E94CF07C4
S113325089818F5F89838981843068F380E59CE26A
S11332600E94CF078BE59CE20E94CF078AE69CE28E
S11332700E94CF0785E79CE20E94CF0780E59CE28D
S11332808093662C9093672C8BE59CE28093682C4A
S11332909093692C00000F90DF91CF910895CF9304
S11332A0DF93CDB7DEB70000DF91CF910895CF93C0
S11332B0DF931F921F92CDB7DEB78091662C909159
S11332C0672CFC018081882361F48FEF9FEFDC0180
S11332D080938B2C90938C2CA0938D2CB0938E2C5C
S11332E01BC08091662C9091672CFC01878190858E
S11332F0FC018085918589839A8389819A81FC0167
S113330082819381A481B58180938B2C90938C2CA2
S1133310A0938D2CB0938E2C00000F900F90DF9112
S1133320CF910895CF93DF931F92CDB7DEB78091ED
S1133330862C882319F481E0898308C08091912C1C
S1133340882319F482E0898301C0198289810F904E
S1133350DF91CF910895EF92FF920F931F93CF9334
S1133360DF9300D01F92CDB7DEB78091222C9091CD
S1133370232CFC0186859785A089B18989839A834A
S1133380AB83BC836091222C7091232C8091222CDE
S11333909091232CFC01828D882F90E0A0E0B0E076
S11333A024E030E040E050E079018A01E81AF90AAB
S11333B00A0B1B0BD801C701FB0186879787A08BDB
S11333C0B18B89819A81AB81BC81BC01CD012496EA
S11333D0CDBFDEBFDF91CF911F910F91FF90EF9092
S11333E00895CF93DF93CDB7DEB72D97CDBFDEBF62
S11333F069877A878B879C874D878091812C9091F0
S1133400822CA091832CB091842C89839A83AB83E2
S1133410BC838091222C9091232C02960E94E80870
S113342089859A85AB85BC858F3F9F4FAF4FBF4F32
S113343071F48D85882359F08091222C9091232C4E
S11334400296BC0185E79CE20E941C0864C02981A5
S11334503A814B815C8189859A85AB85BC85820FD5
S1133460931FA41FB51F8D839E83AF83B8872091BC
S1133470222C3091232C8D819E81AF81B885F90156
S113348082839383A483B5832D813E814F815885A4
S113349089819A81AB81BC81281739074A075B0768
S11334A078F48091222C9091232C9C012E5F3F4F25
S11334B08091682C9091692CB9010E9467082BC0F7
S11334C08091222C9091232C9C012E5F3F4F809160
S11334D0662C9091672CB9010E94670880918B2C0F
S11334E090918C2CA0918D2CB0918E2C2D813E81AD
S11334F04F815885281739074A075B0760F48D8187
S11335009E81AF81B88580938B2C90938C2CA09353
S11335108D2CB0938E2C00002D96CDBFDEBFDF9195
S1133520CF910895EF92FF920F93CF93DF931F9261
S1133530CDB7DEB719820E94231F8091AC2C9091E5
S1133540AD2C892B91F00F2EFEEAEF2EFCE2FF2E1C
S1133550F02D03E020E030E048EC50E06DE070E254
S113356088EA9BE10E94CD11898389810F90DF91C4
S1133570CF910F91FF90EF900895CF92DF92EF9249
S1133580FF920F931F93CF93DF93CDB7DEB7679767
S1133590CDBFDEBF8B879C876D872E873F87488B87
S11335A0598B0A8B1B8BCC8ADD8AEE8AFF8A19829F
S11335B08091AC2C9091AD2C892B09F444C08D855D
S11335C08A838E859F85A889B9898B839C83AD83E3
S11335D0BE838B859C858F8398878D85863034F553
S11335E00E949219823099F4E091AC2CF091AD2CA8
S11335F08C899D89AE89BF89BE016E5F7F4F00E0D3
S11336009C01AD01CF010E94D10D89831CC0809122
S1133610AC2C9091AD2CBE016E5F7F4F00E020E09A
S113362030E0A9010E94D10D89830DC08091AC2C9A
S11336309091AD2C4A895B89BE016E5F7F4F20E07B
S11336400E94930E898389816796CDBFDEBFDF9187
S1133650CF911F910F91FF90EF90DF90CF9008953D
S1133660CF92DF92EF92FF920F931F93CF93DF934A
S1133670CDB7DEB72B97CDBFDEBF6C837D838E8342
S11336809F83288739874A875B878091A82C9091EC
S1133690A92CFC0187819085FC0180859185898313
S11336A09A8389819A8102960E94E80889819A8185
S11336B0FC0182898130B1F589819A81FC012685DA
S11336C03785408951898C819D81AE81BF81820F6C
S11336D0931FA41FB51FEC80FD800E811F812885D8
S11336E039854A855B85E981FA8167017801890119
S11336F09A01AC01BD01CF010E94C61C882391F040
S11337008C819D81AE81BF81E981FA81C12CD12C4C
S1133710760100E010E09C01AD0160E0CF010E9461
S1133720BD1A8B8389819A81FC0125893689898117
S11337309A81F901199500002B96CDBFDEBFDF9168
S1133740CF911F910F91FF90EF90DF90CF9008954C
S1133750CF93DF93CDB7DEB72797CDBFDEBF8E8380
S11337609F83CE0105960E94431CDC01CB01898313
S11337709A83AB83BC832D8189819A81AB81BC817F
S1133780422FBC01CD010E94C81B0E945F1DE9CFDE
S1133790EF92FF920F931F93CF93DF93CDB7DEB7D2
S11337A02A97CDBFDEBF6E837F83888799874A8738
S11337B00E941A14CE0105960E94811CDC01CB01E3
S11337C089839A83AB83BC838D81882309F04EC09F
S11337D08A858823E1F42E813F8148855985898132
S11337E09A81AB81BC8182179307A407B50778F04F
S11337F00E94271429813A814B815C818E819F81AB
S1133800A885B985BC01CD010E94301B31C08A85D1
S1133810882359F08091AA2C9091AB2CFC019081C3
S113382081E0992309F080E08A872E813F814885D1
S1133830598589819A81AB81BC8179018A01E81A11
S1133840F90A0A0B1B0BD801C701E091AC2CF091CB
S1133850AD2C2A85AC01BD01CF010E947F110E94CD
S11338602714882329F40E94660B02C00E9427149F
S113387000002A96CDBFDEBFDF91CF911F910F913B
S1133880FF90EF900895CF93DF9300D000D0CDB791
S1133890DEB78D839E838091A82C9091A92CFC0186
S11338A0908181E0992309F080E0282F8D819E8109
S11338B0FC0120838D819E81FC018081882389F411
S11338C08091A82C9091A92CFC0187819085FC0102
S11338D080819181A281B38189839A83AB83BC83E4
S11338E004C019821A821B821C8289819A81AB814D
S11338F0BC81BC01CD012696CDBFDEBFDF91CF9147
S11339000895CF93DF9300D000D0CDB7DEB78D8379
S11339109E830E94BE14DC01CB0189839A83AB830E
S1133920BC838091B02C9091B12CA091B22CB09119
S1133930B32C29813A814B815C81281739074A07C6
S11339405B0740F40E94691E8D819E8121E0FC0189
S1133950208304C08D819E81FC01108289819A811B
S1133960AB81BC818093B02C9093B12CA093B22CEA
S1133970B093B32C89819A81AB81BC81BC01CD0108
S11339802696CDBFDEBFDF91CF910895CF92DF920F
S1133990EF92FF920F931F93CF93DF93CDB7DEB7D0
S11339A02F97CDBFDEBF8A839B834C835D836E8359
S11339B07F83088719872A873B87CC86DD86EE8636
S11339C0FF8619822A813B818C819D81AE81BF81D2
S11339D0F90182839383A483B5838A819B812A819D
S11339E03B81FC01228733872C813D814E815F819D
S11339F088859985AA85BB8582179307A407B5078F
S1133A0040F1288539854A855B858C859D85AE8501
S1133A10BF85281B390B4A0B5B0B8A819B81FC01F8
S1133A2086859785A089B189281739074A075B07D6
S1133A3018F081E0898336C08A819B819C012E5FC6
S1133A403F4F8091AA2C9091AB2CB9010E9467083A
S1133A5029C0288539854A855B858C859D85AE85F9
S1133A60BF85281739074A075B0780F42C813D81FD
S1133A704E815F818C859D85AE85BF85281739076A
S1133A804A075B0718F081E089830CC08A819B8117
S1133A909C012E5F3F4F8091A82C9091A92CB901D5
S1133AA00E94670889812F96CDBFDEBFDF91CF9139
S1133AB01F910F91FF90EF90DF90CF900895CF92D8
S1133AC0DF92EF92FF920F931F93CF93DF93CDB7C3
S1133AD0DEB76597CDBFDEBFE0C08A858823FCF4DE
S1133AE0CE010A96019689839A8389819A81FC0181
S1133AF02081318189819A81FC0184819581A6810B
S1133B00B78149815A81FA010280F381E02DEC8B5F
S1133B10FD8BAC01BD018C899D89F90119958A85BC
S1133B2088230CF4BAC08F8598898B839C838B81FE
S1133B309C81FC0184859585892B29F08B819C814E
S1133B4002960E94E808CE0143960E94811CDC0183
S1133B50CB018D839E83AF83B8878A85082E000CA2
S1133B60990B092E000CAA0BBB0B40E050E029E096
S1133B7030E0841B950B2817390708F48DC0FC012D
S1133B808827E250FF4F8F4F0C94EB32EB84FC8478
S1133B900D851E852B853C854D855E858B819C819D
S1133BA0FC0186859785A089B189820F931FA41F84
S1133BB0B51F2D813E814F815885EB81FC816701C2
S1133BC0780189019A01AC01BD01CF010E94C61C94
S1133BD0882309F462C08B819C81FC012589368984
S1133BE08B819C81F90119958B819C81FC018289CF
S1133BF0813009F052C02B853C854D855E858B81D3
S1133C009C81FC0186859785A089B189820F931FC9
S1133C10A41FB51FEB81FC81C12CD12C760100E0DF
S1133C2010E09C01AD0160E0CF010E94BD1A8987BC
S1133C3034C08B859C85AD85BE852B813C81F90183
S1133C4086879787A08BB18B8B819C81FC0126850D
S1133C503785408951898D819E81AF81B885820FD6
S1133C60931FA41FB51FED80FE800F8118852D8141
S1133C703E814F815885EB81FC8167017801890180
S1133C809A01AC01BD01CF010E94C61C06C08B8104
S1133C909C810E94C10701C000008091AC2C9091CE
S1133CA0AD2CBE01665F7F4F20E030E0A9010E9489
S1133CB0F30E882309F011CF00006596CDBFDEBF57
S1133CC0DF91CF911F910F91FF90EF90DF90CF90F4
S1133CD00895CF92DF92EF92FF920F931F93CF93A9
S1133CE0DF93CDB7DEB72D97CDBFDEBF82C0809105
S1133CF0A82C9091A92CFC0187819085FC018081DE
S1133D009181A281B38189839A83AB83BC8380919F
S1133D10A82C9091A92CFC0187819085FC018085B9
S1133D2091858D839E838D819E8102960E94E808F1
S1133D308D819E81FC01258936898D819E81F901C1
S1133D4019958D819E81FC018289813009F051C0D1
S1133D508D819E81FC012685378540895189898121
S1133D609A81AB81BC81820F931FA41FB51F8F83DF
S1133D709887A987BA872F81388549855A8589818B
S1133D809A81AB81BC8182179307A407B507F8F425
S1133D902D813E818F819885A985BA85F901828319
S1133DA09383A483B5838D819E812D813E81FC0103
S1133DB0228733878D819E819C012E5F3F4F8091A6
S1133DC0A82C9091A92CB9010E94670812C089817E
S1133DD09A81AB81BC81ED81FE81C12CD12C76010D
S1133DE000E010E09C01AD0160E0CF010E94BD1A2B
S1133DF08B878091A82C9091A92CFC018081882329
S1133E0009F075CF8091A82C9091A92C8C879D875F
S1133E108091AA2C9091AB2C8093A82C9093A92CE0
S1133E208C859D858093AA2C9093AB2C00002D96B5
S1133E30CDBFDEBFDF91CF911F910F91FF90EF9027
S1133E40DF90CF900895CF93DF93CDB7DEB7F09195
S1133E50A200FF93F87FF093A2008091AC2C909184
S1133E60AD2C892BE9F482E99CE20E94CF078DE90D
S1133E709CE20E94CF0782E99CE28093A82C909355
S1133E80A92C8DE99CE28093AA2C9093AB2C40E062
S1133E9069E085E00E944C0D8093AC2C9093AD2C8E
S1133EA0FF91F093A2000000DF91CF9108950F934A
S1133EB01F93CF93DF93CDB7DEB76497CDBFDEBF3B
S1133EC08B879C876D877E872F87388B498B5A8B8E
S1133ED00B8B1C8B8EEF8A838B859C858B839C83B9
S1133EE08D859E858D839E838F859889A989BA89BE
S1133EF08F839887A987BA878091AC2C9091AD2C39
S1133F004B895C89BE016E5F7F4F20E00E94930E57
S1133F10898389816496CDBFDEBFDF91CF911F91E4
S1133F200F910895CF93DF93CDB7DEB780E590E08E
S1133F3020E530E0F90120812160FC01208380E547
S1133F4090E0FC018181882F90E081709927892B72
S1133F50B1F380E00E9480038EE10E94490360E097
S1133F6080E00E94690343E060E080E40E9414035F
S1133F7080E590E020E530E0F90120812860FC0133
S1133F80208380E590E0FC018181882F90E0887097
S1133F909927892BB1F364E080EC0E94310380E51A
S1133FA090E020E530E0F90120812061FC012083CC
S1133FB060E080E00E94690380E590E0FC0181817B
S1133FC0882F90E080719927892BB1F384E00E94B7
S1133FD0800387E00E9449030000DF91CF91089598
S1133FE0CF93DF93CDB7DEB70000DF91CF91089573
S1133FF0EF92FF920F93CF93DF931F92CDB7DEB76B
S11340000E94BA2C89830E94921F0E9404250F2EBD
S1134010F5EEEF2EFCE2FF2EF02D01E020E030E083
S113402042ED50E065E170E28CE590E20E94CD1132
S11340300F2EF3EFEF2EFCE2FF2EF02D01E020E037
S113404030E042ED50E065E170E289E790E20E94E1
S1134050CD110F2EF7EEEF2EFCE2FF2EF02D01E036
S113406020E030E042ED50E065E170E28EE492E25F
S11340700E94CD110F2EF9EEEF2EFCE2FF2EF02D53
S113408001E020E030E042ED50E065E170E281E9DA
S113409091E20E94CD110E9440048093E32C9093FE
S11340A0E42C0E94CE1380E090E00F90DF91CF913A
S11340B00F91FF90EF900895CF93DF931F921F927B
S11340C0CDB7DEB789839A8380EA96E021E0FC01CC
S11340D0218380EA96E0FC01148280EA96E021E0E4
S11340E0FC01278364EF71E080E090E00E94A0135C
S11340F0F4CFCF92DF92EF92FF920F93CF93DF939F
S1134100CDB7DEB72897CDBFDEBF8F8398871982DE
S11341101A821B821C821D821E828091E32C909144
S1134120E42CCC24CA94DC2C760100E020E043E0AB
S113413050E060E070E00E946304DC01CB018093F6
S1134140ED2C9093EE2CA093EF2CB093F02C809157
S1134150ED2C9091EE2CA091EF2CB091F02C81706D
S11341609927AA27BB27892B8A2B8B2B09F49EC05E
S11341701D821E82C0900020D0900120E090022079
S1134180F090032020E030E040E850E469817A8137
S11341908B819C810E94DE2EDC01CB0120E030E08B
S11341A040E450E4BC01CD010E940E2DDC01CB01A2
S11341B09C01AD0160E070E080E89FE30E947F2DE8
S11341C0DC01CB019C01AD01C701B6010E940D2D9C
S11341D0DC01CB016C017D0120E030E040E850E4DB
S11341E069817A818B819C810E94DE2EDC01CB0166
S11341F020E030E040EA50E4BC01CD010E940E2DE5
S1134200DC01CB019C01AD0160E070E080E89FE33C
S11342100E947F2DDC01CB019C01AD01C701B601D9
S11342200E940E2DDC01CB0180930020909301208D
S1134230A0930220B093032020E030E040E85FE345
S113424069817A818B819C810E940E2DDC01CB01D6
S113425089839A83AB83BC83809104209091052049
S1134260A0910620B09107202091002030910120D8
S11342704091022050910320BC01CD010E94D92E0F
S1134280882374F080E099E0FC0110828091E32C93
S11342909091E42C41E050E060E070E00E949B05C6
S11342A08D819E8101968D839E8364CF8091ED2CB8
S11342B09091EE2CA091EF2CB091F02C8470992762
S11342C0AA27BB27892B8A2B8B2B21F180E090E036
S11342D0A0E8BFE38093002090930120A0930220E4
S11342E0B093032019821A821B821C828091E32CD2
S11342F09091E42C44E050E060E070E00E949B0563
S1134300DC01CB018093ED2C9093EE2CA093EF2C49
S1134310B093F02C6AE070E080E090E00E94A0137B
S1134320FCCECF93DF9300D000D0CDB7DEB78D8322
S11343309E831B821C820E94CD0180E00E94BF02EA
S1134340813009F03EC089819A81019789F4809176
S1134350E32C9091E42C41E050E060E070E00E9496
S11343609B0580E099E0FC01108219821A8229C021
S11343708091E32C9091E42C41E050E060E070E007
S11343800E94E60580E099E027E0FC01208380E0BC
S113439099E0FC01118280E099E023E0FC0126838E
S11343A080E099E027E331E0FC0126A337A381E014
S11343B090E089839A8381E090E08093EB2C909342
S11343C0EC2C81E00E94BF02813079F58B819C81C5
S11343D0019769F48091E32C9091E42C42E050E041
S11343E060E070E00E949B051B821C821EC08091CD
S11343F0E32C9091E42C42E050E060E070E00E94F5
S1134400E605DC01CB018093ED2C9093EE2CA09378
S1134410EF2CB093F02C81E090E08B839C8382E0BE
S113442090E08093EB2C9093EC2C82E00E94BF02EE
S11344308130A1F48091E32C9091E42C44E050E08D
S113444060E070E00E94E605DC01CB018093ED2C76
S11344509093EE2CA093EF2CB093F02C83E00E9469
S1134460BF028130A1F48091E32C9091E42C4FE0C1
S113447050E060E070E00E949B0584E090E080934F
S1134480EB2C9093EC2C19821A821B821C8262E022
S113449070E080E090E00E94A0134DCFCF92DF92B5
S11344A0EF92FF920F931F93CF93DF9300D01F924D
S11344B0CDB7DEB78B839C830E944F278091002069
S11344C090910120A0910220B091032020E030E0DF
S11344D040E850E4BC01CD010E94DE2EDC01CB019A
S11344E06C017D0189819A818C0129E041E0C70139
S11344F0B6010E94F3328EE190E2892F8F938EE110
S113450090E28F931F921F921F921F920E94612725
S11345100F900F900F900F900F900F908A818F93B0
S113452089818F938BE290E2892F8F938BE290E2C3
S11345308F931F921F921F9281E08F930E94612795
S11345408DB79EB70896CDBFDEBF8091F12C9091B8
S1134550F22C292F2F938F9383E390E2892F8F934B
S113456083E390E28F931F921F921F9282E08F93B6
S11345700E9461278DB79EB70896CDBFDEBF80919C
S1134580B42C9091B52C292F2F938F9381E490E232
S1134590892F8F9381E490E28F931F921F921F9231
S11345A083E08F930E9461278DB79EB70896CDBF95
S11345B0DEBF8091ED2C9091EE2CA091EF2CB09168
S11345C0F02C8093F12C9093F22C8091ED2C90910F
S11345D0EE2CA091EF2CB091F02C40E050E0BA0109
S11345E00E949B058091ED2C9091EE2CA091EF2CD4
S11345F0B091F02C82709927AA27BB27892B8A2B8C
S11346008B2B59F18A818F9389818F9389E490E26E
S1134610892F8F9389E490E28F931F921F921F92A8
S113462083E08F930E9461278DB79EB70896CDBF14
S1134630DEBF8091E32C9091E42C42E050E060E0F6
S113464070E00E949B05DC01CB018093ED2C9093DC
S1134650EE2CA093EF2CB093F02C68EC70E080E08B
S113466090E00E94A0132ACF1F920F9200903F0067
S11346700F92112400903B000F922F938F939F93DE
S1134680EF93FF93CF93DF93CDB7DEB780EA96E045
S113469022E0FC0121838091B42C9091B52C0196E9
S11346A08093B42C9093B52C80EA96E022E0FC0130
S11346B0278380E099E028E0FC0121870000DF9156
S11346C0CF91FF91EF919F918F912F910F90009235
S11346D03B000F9000923F000F901F9018951F927F
S11346E00F9200903F000F92112400903B000F9214
S11346F02F933F934F935F936F937F938F939F93E6
S1134700AF93BF93EF93FF93CF93DF931F92CDB7F4
S1134710DEB719828091F72C9091F82C9E012F5FBF
S11347203F4F41E050E060E070E00E94530760E0DA
S113473080E09BE00E94A20380E09BE0FC011682E3
S113474000000F90DF91CF91FF91EF91BF91AF9156
S11347509F918F917F916F915F914F913F912F9195
S11347600F9000923B000F9000923F000F901F901B
S11347701895CF92DF92EF92FF920F93CF93DF932E
S113478000D01F92CDB7DEB769837A838B839C8375
S113479089819A81AB81BC810297A105B10540F45E
S11347A082E090E0A0E0B0E089839A83AB83BC838D
S11347B080E09BE021E0FC01268380E09BE0FC019B
S11347C010A211A260E080E09BE00E94BE038981F8
S11347D09A81AB81BC818E3F9F4FA105B10598F4AE
S11347E020E03BE089819A81AB81BC81B695A79595
S11347F097958795F90186A397A365E080E09BE0F0
S11348000E94A2031FC089819A81AB81BC8180343C
S11348109244AF40B105B0F420E03BE089819A8135
S1134820AB81BC81689414F8B695A7959795879544
S11348301694D1F7F90186A397A367E080E09BE083
S11348400E94A2038091F72C9091F82C0F2EF4EF84
S1134850CF2EDD24D394E12CF12CF02D00E021E0C7
S113486041E050E060E070E00E94630400002496A0
S1134870CDBFDEBFDF91CF910F91FF90EF90DF901E
S1134880CF900895CF93DF931F92CDB7DEB789837E
S113489089818F70898389818295807F898380E073
S11348A096E020E036E0F901348129812F6023234A
S11348B0FC01248380E096E020E036E0F9013481B5
S11348C02981232BFC01248300000F90DF91CF91D9
S11348D00895CF93DF931F92CDB7DEB78983898183
S11348E0882331F080E696E021E0FC01258305C0B1
S11348F080E696E021E0FC01268300000F90DF9122
S1134900CF910895CF93DF931F92CDB7DEB78983FC
S11349108981882331F080E696E022E0FC0125833A
S113492005C080E696E022E0FC01268300000F909B
S1134930DF91CF910895CF93DF931F92CDB7DEB768
S113494089838981882331F080E696E024E0FC01A4
S1134950258305C080E696E024E0FC012683000060
S11349600F90DF91CF910895CF93DF93CDB7DEB74A
S113497081E00E949B2461E070E080E090E00E946E
S1134980B92380E00E949B240000DF91CF91089519
S1134990CF93DF931F92CDB7DEB789838981829548
S11349A08F700E94422480E00E94692480E00E946B
S11349B082240E94B42489818F700E9442240E9420
S11349C0B42400000F90DF91CF910895CF93DF932B
S11349D01F92CDB7DEB78983898182958F700E943B
S11349E0422481E00E94692480E00E9482240E9483
S11349F0B42489818F700E9442240E94B424000050
S1134A000F90DF91CF910895EF92FF920F93CF9380
S1134A10DF93CDB7DEB780E096E020E1FC0121838F
S1134A2080E096E020E2FC01218380E096E020E42F
S1134A30FC01218380E096E020E8FC01218380E6EC
S1134A4096E021E0FC01218380E696E022E0FC016F
S1134A50218380E696E024E0FC01218380E096E057
S1134A6020E036E0F90124812F70FC01248380E6E4
S1134A7096E020E636E0F9012481287FFC012483B6
S1134A8040E066E188E00E944C0D8093F52C909301
S1134A90F62C0E9440048093F72C9093F82CE12C80
S1134AA0F12C02E020E030E04EE551E060E570E2F8
S1134AB082E096E20E94CD110000DF91CF910F9128
S1134AC0FF90EF900895CF93DF9300D01F92CDB75E
S1134AD0DEB789839A836B837C8389819A81813051
S1134AE0910589F0823091051CF4892B39F01AC0A4
S1134AF08230910569F0039781F014C08B8180584E
S1134B000E94C8240FC08B8180540E94C8240AC00C
S1134B108B818C560E94C82405C08B818C520E94C4
S1134B20C824000067E270E080E090E00E94B923AE
S1134B3000002496CDBFDEBFDF91CF910895CF93BF
S1134B40DF931F92CDB7DEB7898389810E94E62463
S1134B506BE270E080E090E00E94B92300000F90C7
S1134B60DF91CF910895CF93DF9300D01F92CDB7FB
S1134B70DEB78B839C8319821A8219C089819A813A
S1134B802B813C81820F931FFC0180818823A1F03B
S1134B9089819A812B813C81820F931FFC01808142
S1134BA00E949F2589819A81019689839A838981AC
S1134BB09A8144971CF301C0000000002496CDBFE5
S1134BC0DEBFDF91CF910895CF93DF9300D000D063
S1134BD0CDB7DEB789839A836B837C834D835E83F1
S1134BE02B813C8189819A81B9010E9463258D8141
S1134BF09E810E94B32500002696CDBFDEBFDF91C3
S1134C00CF910895CF93DF93CDB7DEB7C057D109C5
S1134C10CDBFDEBF9E0121593F4FF90180839183AF
S1134C2019821A821B821C821D821E8226C01F8248
S1134C3018861AC02D813E8144E1429FC001439FE2
S1134C40900D11249E012F5F3F4F280F391F8F8134
S1134C509885820F931F089620E2FC0120838F81A0
S1134C60988501968F8398878F819885449714F34C
S1134C708D819E8101968D839E838D819E81049773
S1134C80B4F260E47CE980E090E00E94B92383E020
S1134C900E94422468E873E180E090E00E94B92316
S1134CA00E94B42460EA70E080E090E00E94B9239E
S1134CB00E94B42460EA70E080E090E00E94B9238E
S1134CC00E94B42460EA70E080E090E00E94B9237E
S1134CD082E00E9442240E94B42488E20E94C824F4
S1134CE080E10E94C8248CE00E94C82486E00E94CF
S1134CF0C82468EC70E080E090E00E94A0138091EA
S1134D00F72C9091F82C40E050E0BA010E949B05EA
S1134D10DC01CB01892B8A2B8B2B09F496C0809163
S1134D20F72C9091F82C42E050E060E070E00E9493
S1134D309B0519821A8226C01B821C821AC02981F3
S1134D403A8144E1429FC001439F900D11249E018A
S1134D502F5F3F4F280F391F8B819C81820F931F38
S1134D60089620E2FC0120838B819C8101968B8331
S1134D709C838B819C81449714F389819A81019649
S1134D8089839A8389819A810497B4F25EC0809161
S1134D90F52C9091F62CBE01675A7F4F2FEF3FEF11
S1134DA0A9010E94F30E882309F44FC019821A82C4
S1134DB032C0CE01875A9F4FFC018081482F50E0BA
S1134DC0CE01875A9F4FFC018181282F30E08981D1
S1134DD09A81820F931FBE01675A7F4F29813A81BE
S1134DE0260F371F2E5F3F4FF901608174E1749FD6
S1134DF09001759F300D1124AE014F5F5F4F240F5A
S1134E00351F820F931F0896FC01608389819A8164
S1134E10019689839A83CE01875A9F4FFC01818131
S1134E20282F30E089819A81820F931F44976CF474
S1134E309E01275A3F4F89819A81820F931F0296C0
S1134E40FC018081882309F0B4CF8091F52C9091E6
S1134E50F62C0E94B30F882309F099CF19821A8285
S1134E6019C09E01275F3F4F49815A8164E1649FC5
S1134E70C001659F900D1124280F391F89819A81E3
S1134E80A90160E070E00E94E42589819A8101967D
S1134E9089839A8389819A8104971CF32ACFCF93BB
S1134EA0DF93CDB7DEB78091F72C9091F82C42E0D8
S1134EB050E060E070E00E94E6050000DF91CF91D1
S1134EC00895CF93DF931F921F92CDB7DEB7CE0123
S1134ED00E9689839A8329813A814C855D856A85FA
S1134EE07B85888599850E947B2700000F900F9011
S1134EF0DF91CF9108950F93CF93DF93CDB7DEB7B2
S1134F00EC97CDBFDEBF8DAB9EAB6FAB78AF49AF37
S1134F105AAF2BAF3CAF19821A821B821C820BC082
S1134F208B819C818A54934DFC0110828B819C81DE
S1134F3001968B839C838B819C8144978CF31D8287
S1134F401E820BC08D819E818653934DFC0110827D
S1134F508D819E8101968D839E838D819E81449750
S1134F608CF3BEC18D89853209F0A0C189AD9AAD9B
S1134F709C012F5F3F4F29AF3AAFFC0180818D8B9D
S1134F808D89882F90E08536910509F446C18636CF
S1134F90910554F48336910501F1843691050CF0A2
S1134FA070C0859769F09CC18337910571F188378A
S1134FB0910509F4A8C08636910509F4E6C090C1AC
S1134FC089819A818653934D25E2FC01208389814E
S1134FD09A81019689839A8383C18BAD9CAD9C0190
S1134FE02E5F3F4F2BAF3CAFFC01808191818E8BB4
S1134FF089819A818653934D2E89FC01208389816E
S11350009A81019689839A836BC18BAD9CAD9C0177
S11350102E5F3F4F2BAF3CAFFC01808191818F8B82
S1135020988F1F82188617C029813A818F819885AD
S1135030820F931F2F8138854F89588D240F351F78
S1135040F90120818653934DFC0120838F8198853B
S113505001968F8398878F89988D0E9406349C01CE
S11350608F81988582179307F8F28F89988D0E9413
S113507006349C0189819A81820F931F89839A83C4
S11350802FC18BAD9CAD9C012E5F3F4F2BAF3CAF2E
S1135090FC0180819181898F9A8F898D9A8D4AE054
S11350A050E066EB7CE20E941A3419861A8615C019
S11350B029813A8189859A85820F931F29853A85AA
S11350C02A54334DF90120818653934DFC012083EA
S11350D089859A85019689879A8786EB9CE20E9446
S11350E006349C0189859A858217930708F386EB19
S11350F09CE20E9406349C0189819A81820F931F4D
S113510089839A83EDC08BAD9CAD9C012E5F3F4F8C
S11351102BAF3CAFFC0180819181898F9A8F898D5F
S11351209A8D40E150E066EB7CE20E941A341B86C3
S11351301C8615C029813A818B859C85820F931F1B
S11351402B853C852A54334DF90120818653934D98
S1135150FC0120838B859C8501968B879C8786EB3D
S11351609CE20E9406349C018B859C8582179307E0
S113517008F386EB9CE20E9406349C0189819A81A3
S1135180820F931F89839A83ABC08BAD9CAD9C0126
S11351902C5F3F4F2BAF3CAFFC0180819181A281FA
S11351A0B3818B8F9C8FAD8FBE8F8B8D9C8DAD8D7E
S11351B0BE8DAC01BD0186EB9CE20E944A2A1D868D
S11351C01E8615C029813A818D859E85820F931F85
S11351D02D853E852A54334DF90120818653934D04
S11351E0FC0120838D859E8501968D879E8786EBA5
S11351F09CE20E9406349C018D859E85821793074C
S113520008F386EB9CE20E9406349C0189819A8112
S1135210820F931F89839A8363C08BAD9CAD9C01DD
S11352202C5F3F4F2BAF3CAFFC0180819181A28169
S1135230B3818B8F9C8FAD8FBE8F8B8D9C8DAD8DED
S1135240BE8DAC01BD0186EB9CE20E94992B1F86AA
S1135250188A15C029813A818F859889820F931FF6
S11352602F8538892A54334DF90120818653934D73
S1135270FC0120838F85988901968F87988B86EB14
S11352809CE20E9406349C018F85988982179307BB
S113529008F386EB9CE20E9406349C0189819A8182
S11352A0820F931F89839A8300001AC089819A818F
S11352B08653934D2D89FC01208389819A818653DD
S11352C0934DFC0180818A3031F489819A8186531F
S11352D0934DFC01108289819A81019689839A8376
S11352E089AD9AAD9C012F5F3F4F29AF3AAFFC01C6
S11352F080818D8B8D89882309F034CE29813A8170
S11353008FA998AD820F931F449754F024E130E0A5
S11353108FA998ADA901481B590BCA0189839A83A7
S1135320198A1A8A0EC09E012F5D3F4F89899A8976
S1135330820F931FFC01108289899A890196898BB7
S11353409A8B89899A89449774F38DA98F8F8FA931
S113535088A31B8A1C8A14C08B899C898653934D0D
S1135360FC0140819E012F5D3F4F8B899C89820FF8
S1135370931FFC0140838B899C8901968B8B9C8BAA
S11353802B893C8989819A81281739072CF38091CC
S1135390F52C9091F62CBE01615E7F4F00E02FEF5B
S11353A03FEFA9010E94D10D89819A81EC96CDBF6E
S11353B0DEBFDF91CF910F910895CF93DF93CDB7E7
S11353C0DEB72897CDBFDEBF8F83988719821A82F4
S11353D08F819885FC0180819181A281B3818B8327
S11353E09C83AD83BE8315C020E030E040E251E4ED
S11353F06B817C818D819E810E947F2DDC01CB019C
S11354008B839C83AD83BE8389819A810196898332
S11354109A8320E030E040E85FE36B817C818D81FA
S11354209E810E94D92E8823FCF615C020E030E02E
S113543040E251E46B817C818D819E810E94DE2E4D
S1135440DC01CB018B839C83AD83BE8389819A81EC
S1135450019789839A832DEC3CEC4CEC5DE36B81E2
S11354607C818D819E810E947A2D8823FCF22F817C
S113547038858B819C81AD81BE81F90180839183C4
S1135480A283B38389819A812896CDBFDEBFDF9141
S1135490CF910895CF92DF92EF92FF92CF93DF9353
S11354A0CDB7DEB72E97CDBFDEBF89879A874B87EE
S11354B05C876D877E8719821A821B821C828B858A
S11354C09C85AD85BE8520E030E0A901BC01CD01FD
S11354D00E947A2D882359F489859A8520E3FC015A
S11354E0208389859A850196FC01108218C18B85D9
S11354F09C85AD85BE8520E030E0A901BC01CD01CD
S11355000E947A2D88239CF489859A859C012F5FBB
S11355103F4F29873A872DE2FC0120838B859C85A8
S1135520AD85BE85B0588B879C87AD87BE87CE017D
S11355300B960E94DD2989839A8353C08B859C85B1
S1135540AD85BE8520E030E040E251E4BC01CD01F0
S11355500E94DE2EDC01CB01BC01CD010E94F12DA5
S1135560DC01CB018D839E8389859A859C012F5F05
S11355703F4F29873A872D81205DFC0120838B854D
S11355809C85AD85BE8520E030E040E251E4BC015D
S1135590CD010E94DE2EDC01CB016C017D018D81E9
S11355A09E81092E000CAA0BBB0BBC01CD010E94ED
S11355B0292EDC01CB019C01AD01C701B6010E947B
S11355C00D2DDC01CB018B879C87AD87BE878B813A
S11355D09C8101968B839C8389819A81019789831D
S11355E09A8389819A81181619060CF4A7CF8B81A6
S11355F09C81892B51F489859A859C012F5F3F4FAB
S113560029873A8720E3FC01208389859A859C01B8
S11356102F5F3F4F29873A872EE2FC01208314C075
S113562089859A859C012F5F3F4F29873A8720E31C
S1135630FC01208389819A81019789839A838B81D4
S11356409C8101968B839C8389819A8199230CF098
S113565058C080915B2090915C202B813C8128175D
S11356603907F4F24EC08B859C85AD85BE8520E05C
S113567030E040E251E4BC01CD010E94DE2EDC01A9
S1135680CB01BC01CD010E94F12DDC01CB018F8344
S1135690988789859A859C012F5F3F4F29873A8790
S11356A02F81205DFC0120838B859C85AD85BE8583
S11356B020E030E040E251E4BC01CD010E94DE2E46
S11356C0DC01CB016C017D018F819885092E000CD2
S11356D0AA0BBB0BBC01CD010E94292EDC01CB011E
S11356E09C01AD01C701B6010E940D2DDC01CB0167
S11356F08B879C87AD87BE878B819C8101968B832A
S11357009C8380915B2090915C202B813C812817A5
S113571039070CF4A8CF89859A85FC0110822E964E
S1135720CDBFDEBFDF91CF91FF90EF90DF90CF90A0
S11357300895CF92DF92EF92FF92CF93DF93CDB78C
S1135740DEB72E97CDBFDEBF89879A874B875C87EC
S11357506D877E871B821C828B859C85AD85BE856B
S113576020E030E0A901BC01CD010E947A2D8823FC
S113577059F489859A8520E3FC01208389859A85DB
S11357800196FC011082ECC08B859C85AD85BE859D
S113579020E030E0A901BC01CD010E947A2D8823CC
S11357A09CF489859A859C012F5F3F4F29873A870E
S11357B02DE2FC0120838B859C85AD85BE85B05888
S11357C08B879C87AD87BE87CE010B960E94DD290F
S11357D08B839C838B859C85AD85BE8520E030E0E2
S11357E040E251E4BC01CD010E94DE2EDC01CB017C
S11357F0BC01CD010E94F12DDC01CB018D839E8380
S113580089859A859C012F5F3F4F29873A872D818F
S1135810205DFC0120838B859C85AD85BE8520E0C1
S113582030E040E251E4BC01CD010E94DE2EDC01F7
S1135830CB016C017D018D819E81092E000CAA0B88
S1135840BB0BBC01CD010E94292EDC01CB019C01C4
S1135850AD01C701B6010E940D2DDC01CB018B8780
S11358609C87AD87BE878B819C8101978B839C83AA
S113587089859A859C012F5F3F4F29873A872EE2BD
S1135880FC01208319821A824EC08B859C85AD85CC
S1135890BE8520E030E040E251E4BC01CD010E942D
S11358A0DE2EDC01CB01BC01CD010E94F12DDC0117
S11358B0CB018F83988789859A859C012F5F3F4F01
S11358C029873A872F81205DFC0120838B859C8565
S11358D0AD85BE8520E030E040E251E4BC01CD015D
S11358E00E94DE2EDC01CB016C017D018F81988545
S11358F0092E000CAA0BBB0BBC01CD010E94292E62
S1135900DC01CB019C01AD01C701B6010E940D2D44
S1135910DC01CB018B879C87AD87BE8789819A8107
S1135920019689839A8380915D2090915E202981DC
S11359303A81281739070CF4A8CF89859A859C01E8
S11359402F5F3F4F29873A8725E6FC01208329856D
S11359503A858B819C814AE050E0B9010E941A3457
S11359602E96CDBFDEBFDF91CF91FF90EF90DF90F9
S1135970CF900895CF93DF931F92CDB7DEB782E027
S1135980898388E790E0FC018081882F90E0807211
S11359909927892B41F088E790E020E2FC012083DD
S11359A081E0898335C088E790E0FC018081882FFD
S11359B090E081709927892B41F088E790E021E0FD
S11359C0FC01208382E0898323C088E790E0FC0106
S11359D08081882F90E080719927892B41F088E796
S11359E090E020E1FC01208383E0898311C088E7F3
S11359F090E0FC018081882F90E082709927892BA8
S1135A0039F088E790E022E0FC01208384E0898378
S1135A1089810F90DF91CF9108955058BB27AA2711
S1135A200E94252D0C949F2E0E94912E38F00E94E6
S1135A30982E20F039F49F3F19F426F40C948E2EFE
S1135A400EF4E095E7FB0C94882EE92F0E94B02E0B
S1135A5058F3BA17620773078407950720F079F49F
S1135A60A6F50C94D22E0EF4E0950B2EBA2FA02D91
S1135A700B01B90190010C01CA01A0011124FF27F7
S1135A80591B99F0593F50F4503E68F11A16F040F2
S1135A90A22F232F342F4427585FF3CF46953795F1
S1135AA02795A795F0405395C9F77EF41F16BA0BB6
S1135AB0620B730B840BBAF09150A1F0FF0FBB1F64
S1135AC0661F771F881FC2F70EC0BA0F621F731FAD
S1135AD0841F48F4879577956795B795F7959E3F0A
S1135AE008F0B0CF9395880F08F09927EE0F97959B
S1135AF0879508950E94642E08F481E008950E9419
S1135B00932D0C949F2E0E94982E58F00E94912E53
S1135B1040F029F45F3F29F00C94882E51110C9425
S1135B20D32E0C948E2E0E94B02E68F39923B1F3D9
S1135B30552391F3951B550BBB27AA2762177307AF
S1135B40840738F09F5F5F4F220F331F441FAA1F43
S1135B50A9F335D00E2E3AF0E0E832D091505040FF
S1135B60E695001CCAF72BD0FE2F29D0660F771FAD
S1135B70881FBB1F261737074807AB07B0E809F093
S1135B80BB0B802DBF01FF2793585F4F3AF09E3F18
S1135B90510578F00C94882E0C94D32E5F3FE4F3D7
S1135BA0983ED4F3869577956795B795F7959F5F5B
S1135BB0C9F7880F911D9695879597F90895E1E0A7
S1135BC0660F771F881FBB1F621773078407BA0706
S1135BD020F0621B730B840BBA0BEE1F88F7E09561
S1135BE008950E94F82D6894B1110C94D32E089551
S1135BF00E94B82E88F09F5798F0B92F9927B75173
S1135C00B0F0E1F0660F771F881F991F1AF0BA955C
S1135C10C9F714C0B13091F00E94D22EB1E00895BA
S1135C200C94D22E672F782F8827B85F39F0B93FAC
S1135C30CCF3869577956795B395D9F73EF490950F
S1135C408095709561957F4F8F4F9F4F0895E8948D
S1135C5009C097FB3EF490958095709561957F4FB0
S1135C608F4F9F4F9923A9F0F92F96E9BB2793955E
S1135C70F695879577956795B795F111F8CFFAF46E
S1135C80BB0F11F460FF1BC06F5F7F4F8F4F9F4F9F
S1135C9016C0882311F096E911C0772321F09EE8FD
S1135CA0872F762F05C0662371F096E8862F70E063
S1135CB060E02AF09A95660F771F881FDAF7880F3D
S1135CC09695879597F90895990F0008550FAA0B93
S1135CD0E0E8FEEF16161706E807F907C0F01216FB
S1135CE01306E407F50798F0621B730B840B950BFE
